{
  "_format": "hh-sol-artifact-1",
  "contractName": "UpgradeableBridgeContract",
  "sourceName": "contracts/UpgradeableBridgeContract.sol",
  "abi": [
    {
      "anonymous": false,
      "inputs": [
        {
          "indexed": true,
          "internalType": "address",
          "name": "previousOwner",
          "type": "address"
        },
        {
          "indexed": true,
          "internalType": "address",
          "name": "newOwner",
          "type": "address"
        }
      ],
      "name": "OwnershipTransferred",
      "type": "event"
    },
    {
      "anonymous": false,
      "inputs": [
        {
          "indexed": true,
          "internalType": "address",
          "name": "account",
          "type": "address"
        },
        {
          "indexed": false,
          "internalType": "uint256",
          "name": "amount",
          "type": "uint256"
        }
      ],
      "name": "TokensLocked",
      "type": "event"
    },
    {
      "anonymous": false,
      "inputs": [
        {
          "indexed": true,
          "internalType": "address",
          "name": "account",
          "type": "address"
        },
        {
          "indexed": false,
          "internalType": "uint256",
          "name": "amount",
          "type": "uint256"
        },
        {
          "indexed": false,
          "internalType": "uint256",
          "name": "nonce",
          "type": "uint256"
        }
      ],
      "name": "TokensUnlocked",
      "type": "event"
    },
    {
      "inputs": [
        {
          "internalType": "address",
          "name": "relayerAddress",
          "type": "address"
        }
      ],
      "name": "changeRelayerAddress",
      "outputs": [],
      "stateMutability": "nonpayable",
      "type": "function"
    },
    {
      "inputs": [
        {
          "internalType": "address",
          "name": "owner",
          "type": "address"
        },
        {
          "internalType": "uint256",
          "name": "amount",
          "type": "uint256"
        },
        {
          "internalType": "uint256",
          "name": "nonce",
          "type": "uint256"
        },
        {
          "internalType": "bytes",
          "name": "signature",
          "type": "bytes"
        }
      ],
      "name": "checkSignatureAndUnlock",
      "outputs": [],
      "stateMutability": "nonpayable",
      "type": "function"
    },
    {
      "inputs": [
        {
          "internalType": "address",
          "name": "account",
          "type": "address"
        }
      ],
      "name": "getCurrentNonce",
      "outputs": [
        {
          "internalType": "uint256",
          "name": "",
          "type": "uint256"
        }
      ],
      "stateMutability": "view",
      "type": "function"
    },
    {
      "inputs": [],
      "name": "getRelayerAddress",
      "outputs": [
        {
          "internalType": "address",
          "name": "",
          "type": "address"
        }
      ],
      "stateMutability": "view",
      "type": "function"
    },
    {
      "inputs": [
        {
          "internalType": "address",
          "name": "token",
          "type": "address"
        }
      ],
      "name": "initialize",
      "outputs": [],
      "stateMutability": "nonpayable",
      "type": "function"
    },
    {
      "inputs": [
        {
          "internalType": "uint256",
          "name": "amount",
          "type": "uint256"
        }
      ],
      "name": "lock",
      "outputs": [],
      "stateMutability": "nonpayable",
      "type": "function"
    },
    {
      "inputs": [],
      "name": "owner",
      "outputs": [
        {
          "internalType": "address",
          "name": "",
          "type": "address"
        }
      ],
      "stateMutability": "view",
      "type": "function"
    },
    {
      "inputs": [],
      "name": "renounceOwnership",
      "outputs": [],
      "stateMutability": "nonpayable",
      "type": "function"
    },
    {
      "inputs": [],
      "name": "token",
      "outputs": [
        {
          "internalType": "contract IERC20",
          "name": "",
          "type": "address"
        }
      ],
      "stateMutability": "view",
      "type": "function"
    },
    {
      "inputs": [
        {
          "internalType": "address",
          "name": "newOwner",
          "type": "address"
        }
      ],
      "name": "transferOwnership",
      "outputs": [],
      "stateMutability": "nonpayable",
      "type": "function"
    }
  ],
  "bytecode": "0x608060405234801561001057600080fd5b506117ac806100206000396000f3fe608060405234801561001057600080fd5b50600436106100be5760003560e01c8063c4d66de811610076578063ead6e52a1161005b578063ead6e52a14610196578063f2fde38b146101a9578063fc0c546a146101bc57600080fd5b8063c4d66de814610170578063dd4670641461018357600080fd5b806379192251116100a757806379192251146100e05780638da5cb5b146101295780639c2dadc91461016857600080fd5b8063317bab55146100c3578063715018a6146100d8575b600080fd5b6100d66100d13660046115c5565b6101da565b005b6100d6610472565b6101166100ee3660046115a4565b73ffffffffffffffffffffffffffffffffffffffff1660009081526098602052604090205490565b6040519081526020015b60405180910390f35b60335473ffffffffffffffffffffffffffffffffffffffff165b60405173ffffffffffffffffffffffffffffffffffffffff9091168152602001610120565b610143610562565b6100d661017e3660046115a4565b610603565b6100d66101913660046116d1565b610808565b6100d66101a43660046115a4565b610a71565b6100d66101b73660046115a4565b610b39565b60975473ffffffffffffffffffffffffffffffffffffffff16610143565b6002606554141561024c576040517f08c379a000000000000000000000000000000000000000000000000000000000815260206004820152601f60248201527f5265656e7472616e637947756172643a207265656e7472616e742063616c6c0060448201526064015b60405180910390fd5b6002606555818461025e600183611701565b73ffffffffffffffffffffffffffffffffffffffff8216600090815260986020526040902054146102eb576040517f08c379a000000000000000000000000000000000000000000000000000000000815260206004820152600d60248201527f496e76616c6964206e6f6e6365000000000000000000000000000000000000006044820152606401610243565b604080516020808201889052818301879052606089811b7fffffffffffffffffffffffffffffffffffffffff0000000000000000000000001690830152825180830360540181526074830184528051908201207f19457468657265756d205369676e6564204d6573736167653a0a333200000000609484015260b08084018290528451808503909101815260d09093019093528151910120600061038f8287610ceb565b60995490915073ffffffffffffffffffffffffffffffffffffffff808316911614610416576040517f08c379a000000000000000000000000000000000000000000000000000000000815260206004820152600d60248201527f496e76616c6964206f776e6572000000000000000000000000000000000000006044820152606401610243565b73ffffffffffffffffffffffffffffffffffffffff89166000908152609860205260408120805490916001918391906104509084906116e9565b9091555061046190508a8a8a610dd4565b505060016065555050505050505050565b60335473ffffffffffffffffffffffffffffffffffffffff1633146104f3576040517f08c379a000000000000000000000000000000000000000000000000000000000815260206004820181905260248201527f4f776e61626c653a2063616c6c6572206973206e6f7420746865206f776e65726044820152606401610243565b60335460405160009173ffffffffffffffffffffffffffffffffffffffff16907f8be0079c531659141344cd1fd0a4f28419497f9722a3daafe3b4186f6b6457e0908390a3603380547fffffffffffffffffffffffff0000000000000000000000000000000000000000169055565b60335460009073ffffffffffffffffffffffffffffffffffffffff1633146105e6576040517f08c379a000000000000000000000000000000000000000000000000000000000815260206004820181905260248201527f4f776e61626c653a2063616c6c6572206973206e6f7420746865206f776e65726044820152606401610243565b5060995473ffffffffffffffffffffffffffffffffffffffff1690565b600054610100900460ff168061061c575060005460ff16155b6106a8576040517f08c379a000000000000000000000000000000000000000000000000000000000815260206004820152602e60248201527f496e697469616c697a61626c653a20636f6e747261637420697320616c72656160448201527f647920696e697469616c697a65640000000000000000000000000000000000006064820152608401610243565b600054610100900460ff161580156106e757600080547fffffffffffffffffffffffffffffffffffffffffffffffffffffffffffff0000166101011790555b8173ffffffffffffffffffffffffffffffffffffffff81163b61078c576040517f08c379a000000000000000000000000000000000000000000000000000000000815260206004820152603460248201527f5b56616c69646174696f6e5d20546865206164647265737320646f6573206e6f60448201527f7420636f6e7461696e206120636f6e74726163740000000000000000000000006064820152608401610243565b609780547fffffffffffffffffffffffff00000000000000000000000000000000000000001673ffffffffffffffffffffffffffffffffffffffff85161790556107d4610f79565b50801561080457600080547fffffffffffffffffffffffffffffffffffffffffffffffffffffffffffff00ff1690555b5050565b60026065541415610875576040517f08c379a000000000000000000000000000000000000000000000000000000000815260206004820152601f60248201527f5265656e7472616e637947756172643a207265656e7472616e742063616c6c006044820152606401610243565b6002606555806108e1576040517f08c379a000000000000000000000000000000000000000000000000000000000815260206004820152601f60248201527f54686520616d6f756e74206d757374206265206c61726765207468616e2030006044820152606401610243565b60975473ffffffffffffffffffffffffffffffffffffffff166040517f23b872dd0000000000000000000000000000000000000000000000000000000081523360048201523060248201526044810183905273ffffffffffffffffffffffffffffffffffffffff91909116906323b872dd90606401602060405180830381600087803b15801561097057600080fd5b505af1158015610984573d6000803e3d6000fd5b505050506040513d601f19601f820116820180604052508101906109a891906116b1565b610a34576040517f08c379a000000000000000000000000000000000000000000000000000000000815260206004820152602e60248201527f536f6d657468696e672077656e742077726f6e6720647572696e67207468652060448201527f746f6b656e207472616e736665720000000000000000000000000000000000006064820152608401610243565b60405181815233907fac87f20a77d28ee8bbb58ec87ea8fa968b3393efae1a368fd50b767c2847391c9060200160405180910390a2506001606555565b60335473ffffffffffffffffffffffffffffffffffffffff163314610af2576040517f08c379a000000000000000000000000000000000000000000000000000000000815260206004820181905260248201527f4f776e61626c653a2063616c6c6572206973206e6f7420746865206f776e65726044820152606401610243565b609980547fffffffffffffffffffffffff00000000000000000000000000000000000000001673ffffffffffffffffffffffffffffffffffffffff92909216919091179055565b60335473ffffffffffffffffffffffffffffffffffffffff163314610bba576040517f08c379a000000000000000000000000000000000000000000000000000000000815260206004820181905260248201527f4f776e61626c653a2063616c6c6572206973206e6f7420746865206f776e65726044820152606401610243565b73ffffffffffffffffffffffffffffffffffffffff8116610c5d576040517f08c379a000000000000000000000000000000000000000000000000000000000815260206004820152602660248201527f4f776e61626c653a206e6577206f776e657220697320746865207a65726f206160448201527f64647265737300000000000000000000000000000000000000000000000000006064820152608401610243565b60335460405173ffffffffffffffffffffffffffffffffffffffff8084169216907f8be0079c531659141344cd1fd0a4f28419497f9722a3daafe3b4186f6b6457e090600090a3603380547fffffffffffffffffffffffff00000000000000000000000000000000000000001673ffffffffffffffffffffffffffffffffffffffff92909216919091179055565b600080600080845160411415610d155750505060208201516040830151606084015160001a610dbe565b845160401415610d5c5750505060408201516020830151907f7fffffffffffffffffffffffffffffffffffffffffffffffffffffffffffffff81169060ff1c601b01610dbe565b6040517f08c379a000000000000000000000000000000000000000000000000000000000815260206004820152601f60248201527f45434453413a20696e76616c6964207369676e6174757265206c656e677468006044820152606401610243565b610dca8682858561109f565b9695505050505050565b60975473ffffffffffffffffffffffffffffffffffffffff166040517fa9059cbb00000000000000000000000000000000000000000000000000000000815273ffffffffffffffffffffffffffffffffffffffff858116600483015260248201859052919091169063a9059cbb90604401602060405180830381600087803b158015610e5f57600080fd5b505af1158015610e73573d6000803e3d6000fd5b505050506040513d601f19601f82011682018060405250810190610e9791906116b1565b610f23576040517f08c379a000000000000000000000000000000000000000000000000000000000815260206004820152602e60248201527f536f6d657468696e672077656e742077726f6e6720647572696e67207468652060448201527f746f6b656e207472616e736665720000000000000000000000000000000000006064820152608401610243565b604080518381526020810183905273ffffffffffffffffffffffffffffffffffffffff8516917f89882ad382a3742d4db24e4dabc5000c5852aed762904db28442e4e1630a1d07910160405180910390a2505050565b600054610100900460ff1680610f92575060005460ff16155b61101e576040517f08c379a000000000000000000000000000000000000000000000000000000000815260206004820152602e60248201527f496e697469616c697a61626c653a20636f6e747261637420697320616c72656160448201527f647920696e697469616c697a65640000000000000000000000000000000000006064820152608401610243565b600054610100900460ff1615801561105d57600080547fffffffffffffffffffffffffffffffffffffffffffffffffffffffffffff0000166101011790555b6110656112f7565b61106d61140b565b801561109c57600080547fffffffffffffffffffffffffffffffffffffffffffffffffffffffffffff00ff1690555b50565b60007f7fffffffffffffffffffffffffffffff5d576e7357a4501ddfe92f46681b20a0821115611151576040517f08c379a000000000000000000000000000000000000000000000000000000000815260206004820152602260248201527f45434453413a20696e76616c6964207369676e6174757265202773272076616c60448201527f75650000000000000000000000000000000000000000000000000000000000006064820152608401610243565b8360ff16601b148061116657508360ff16601c145b6111f2576040517f08c379a000000000000000000000000000000000000000000000000000000000815260206004820152602260248201527f45434453413a20696e76616c6964207369676e6174757265202776272076616c60448201527f75650000000000000000000000000000000000000000000000000000000000006064820152608401610243565b6040805160008082526020820180845288905260ff871692820192909252606081018590526080810184905260019060a0016020604051602081039080840390855afa158015611246573d6000803e3d6000fd5b50506040517fffffffffffffffffffffffffffffffffffffffffffffffffffffffffffffffe0015191505073ffffffffffffffffffffffffffffffffffffffff81166112ee576040517f08c379a000000000000000000000000000000000000000000000000000000000815260206004820152601860248201527f45434453413a20696e76616c6964207369676e617475726500000000000000006044820152606401610243565b95945050505050565b600054610100900460ff1680611310575060005460ff16155b61139c576040517f08c379a000000000000000000000000000000000000000000000000000000000815260206004820152602e60248201527f496e697469616c697a61626c653a20636f6e747261637420697320616c72656160448201527f647920696e697469616c697a65640000000000000000000000000000000000006064820152608401610243565b600054610100900460ff1615801561106d57600080547fffffffffffffffffffffffffffffffffffffffffffffffffffffffffffff000016610101179055801561109c57600080547fffffffffffffffffffffffffffffffffffffffffffffffffffffffffffff00ff16905550565b600054610100900460ff1680611424575060005460ff16155b6114b0576040517f08c379a000000000000000000000000000000000000000000000000000000000815260206004820152602e60248201527f496e697469616c697a61626c653a20636f6e747261637420697320616c72656160448201527f647920696e697469616c697a65640000000000000000000000000000000000006064820152608401610243565b600054610100900460ff161580156114ef57600080547fffffffffffffffffffffffffffffffffffffffffffffffffffffffffffff0000166101011790555b603380547fffffffffffffffffffffffff0000000000000000000000000000000000000000163390811790915560405181906000907f8be0079c531659141344cd1fd0a4f28419497f9722a3daafe3b4186f6b6457e0908290a350801561109c57600080547fffffffffffffffffffffffffffffffffffffffffffffffffffffffffffff00ff16905550565b803573ffffffffffffffffffffffffffffffffffffffff8116811461159f57600080fd5b919050565b6000602082840312156115b5578081fd5b6115be8261157b565b9392505050565b600080600080608085870312156115da578283fd5b6115e38561157b565b93506020850135925060408501359150606085013567ffffffffffffffff8082111561160d578283fd5b818701915087601f830112611620578283fd5b81358181111561163257611632611747565b604051601f82017fffffffffffffffffffffffffffffffffffffffffffffffffffffffffffffffe0908116603f0116810190838211818310171561167857611678611747565b816040528281528a6020848701011115611690578586fd5b82602086016020830137918201602001949094529598949750929550505050565b6000602082840312156116c2578081fd5b815180151581146115be578182fd5b6000602082840312156116e2578081fd5b5035919050565b600082198211156116fc576116fc611718565b500190565b60008282101561171357611713611718565b500390565b7f4e487b7100000000000000000000000000000000000000000000000000000000600052601160045260246000fd5b7f4e487b7100000000000000000000000000000000000000000000000000000000600052604160045260246000fdfea2646970667358221220755bbbafea79c1fb3036246f42fd265324c150c80be1751c90a2987615530c6664736f6c63430008040033",
  "linkReferences": {},
  "deployedLinkReferences": {}
}