{
  "_format": "hh-sol-artifact-1",
  "contractName": "UpgradeableBridgeContract",
  "sourceName": "contracts/UpgradeableBridgeContract.sol",
  "abi": [
    {
      "anonymous": false,
      "inputs": [
        {
          "indexed": true,
          "internalType": "address",
          "name": "previousOwner",
          "type": "address"
        },
        {
          "indexed": true,
          "internalType": "address",
          "name": "newOwner",
          "type": "address"
        }
      ],
      "name": "OwnershipTransferred",
      "type": "event"
    },
    {
      "anonymous": false,
      "inputs": [
        {
          "indexed": true,
          "internalType": "address",
          "name": "account",
          "type": "address"
        },
        {
          "indexed": false,
          "internalType": "uint256",
          "name": "amount",
          "type": "uint256"
        },
        {
          "indexed": false,
          "internalType": "uint256",
          "name": "nonce",
          "type": "uint256"
        }
      ],
      "name": "TokensLocked",
      "type": "event"
    },
    {
      "anonymous": false,
      "inputs": [
        {
          "indexed": true,
          "internalType": "address",
          "name": "account",
          "type": "address"
        },
        {
          "indexed": false,
          "internalType": "uint256",
          "name": "amount",
          "type": "uint256"
        },
        {
          "indexed": false,
          "internalType": "uint256",
          "name": "nonce",
          "type": "uint256"
        }
      ],
      "name": "TokensUnlocked",
      "type": "event"
    },
    {
      "inputs": [
        {
          "internalType": "address",
          "name": "relayerAddress",
          "type": "address"
        }
      ],
      "name": "changeRelayerAddress",
      "outputs": [],
      "stateMutability": "nonpayable",
      "type": "function"
    },
    {
      "inputs": [
        {
          "internalType": "address",
          "name": "owner",
          "type": "address"
        },
        {
          "internalType": "uint256",
          "name": "amount",
          "type": "uint256"
        },
        {
          "internalType": "uint256",
          "name": "nonce",
          "type": "uint256"
        },
        {
          "internalType": "bytes",
          "name": "signature",
          "type": "bytes"
        }
      ],
      "name": "checkSignatureAndUnlock",
      "outputs": [],
      "stateMutability": "nonpayable",
      "type": "function"
    },
    {
      "inputs": [
        {
          "internalType": "address",
          "name": "account",
          "type": "address"
        }
      ],
      "name": "getReceiveNonce",
      "outputs": [
        {
          "internalType": "uint256",
          "name": "",
          "type": "uint256"
        }
      ],
      "stateMutability": "view",
      "type": "function"
    },
    {
      "inputs": [],
      "name": "getRelayerAddress",
      "outputs": [
        {
          "internalType": "address",
          "name": "",
          "type": "address"
        }
      ],
      "stateMutability": "view",
      "type": "function"
    },
    {
      "inputs": [
        {
          "internalType": "address",
          "name": "account",
          "type": "address"
        }
      ],
      "name": "getSendNonce",
      "outputs": [
        {
          "internalType": "uint256",
          "name": "",
          "type": "uint256"
        }
      ],
      "stateMutability": "view",
      "type": "function"
    },
    {
      "inputs": [
        {
          "internalType": "address",
          "name": "token",
          "type": "address"
        }
      ],
      "name": "initialize",
      "outputs": [],
      "stateMutability": "nonpayable",
      "type": "function"
    },
    {
      "inputs": [
        {
          "internalType": "uint256",
          "name": "amount",
          "type": "uint256"
        },
        {
          "internalType": "uint256",
          "name": "nonce",
          "type": "uint256"
        }
      ],
      "name": "lock",
      "outputs": [],
      "stateMutability": "nonpayable",
      "type": "function"
    },
    {
      "inputs": [],
      "name": "owner",
      "outputs": [
        {
          "internalType": "address",
          "name": "",
          "type": "address"
        }
      ],
      "stateMutability": "view",
      "type": "function"
    },
    {
      "inputs": [],
      "name": "renounceOwnership",
      "outputs": [],
      "stateMutability": "nonpayable",
      "type": "function"
    },
    {
      "inputs": [],
      "name": "token",
      "outputs": [
        {
          "internalType": "contract IERC20",
          "name": "",
          "type": "address"
        }
      ],
      "stateMutability": "view",
      "type": "function"
    },
    {
      "inputs": [
        {
          "internalType": "address",
          "name": "newOwner",
          "type": "address"
        }
      ],
      "name": "transferOwnership",
      "outputs": [],
      "stateMutability": "nonpayable",
      "type": "function"
    }
  ],
  "bytecode": "0x608060405234801561001057600080fd5b506118d0806100206000396000f3fe608060405234801561001057600080fd5b50600436106100c95760003560e01c80638da5cb5b11610081578063ead6e52a1161005b578063ead6e52a146101da578063f2fde38b146101ed578063fc0c546a1461020057600080fd5b80638da5cb5b146101805780639c2dadc9146101bf578063c4d66de8146101c757600080fd5b8063317bab55116100b2578063317bab551461012f5780634ad0993414610142578063715018a61461017857600080fd5b80631338736f146100ce5780632ce25732146100e3575b600080fd5b6100e16100dc3660046117ec565b61021e565b005b61011c6100f13660046116bf565b73ffffffffffffffffffffffffffffffffffffffff1660009081526098602052604090206001015490565b6040519081526020015b60405180910390f35b6100e161013d3660046116e0565b61055c565b61011c6101503660046116bf565b73ffffffffffffffffffffffffffffffffffffffff1660009081526098602052604090205490565b6100e16107f6565b60335473ffffffffffffffffffffffffffffffffffffffff165b60405173ffffffffffffffffffffffffffffffffffffffff9091168152602001610126565b61019a6108e6565b6100e16101d53660046116bf565b610987565b6100e16101e83660046116bf565b610b8c565b6100e16101fb3660046116bf565b610c54565b60975473ffffffffffffffffffffffffffffffffffffffff1661019a565b60026065541415610290576040517f08c379a000000000000000000000000000000000000000000000000000000000815260206004820152601f60248201527f5265656e7472616e637947756172643a207265656e7472616e742063616c6c0060448201526064015b60405180910390fd5b600260655580336102a2600183611825565b73ffffffffffffffffffffffffffffffffffffffff82166000908152609860205260409020541461032f576040517f08c379a000000000000000000000000000000000000000000000000000000000815260206004820152601260248201527f496e76616c69642073656e64206e6f6e636500000000000000000000000000006044820152606401610287565b60008411610399576040517f08c379a000000000000000000000000000000000000000000000000000000000815260206004820152601f60248201527f54686520616d6f756e74206d757374206265206c61726765207468616e2030006044820152606401610287565b60975473ffffffffffffffffffffffffffffffffffffffff166040517f23b872dd0000000000000000000000000000000000000000000000000000000081523360048201523060248201526044810186905273ffffffffffffffffffffffffffffffffffffffff91909116906323b872dd90606401602060405180830381600087803b15801561042857600080fd5b505af115801561043c573d6000803e3d6000fd5b505050506040513d601f19601f8201168201806040525081019061046091906117cc565b6104ec576040517f08c379a000000000000000000000000000000000000000000000000000000000815260206004820152602e60248201527f536f6d657468696e672077656e742077726f6e6720647572696e67207468652060448201527f746f6b656e207472616e736665720000000000000000000000000000000000006064820152608401610287565b3360009081526098602052604081208054909160019183919061051090849061180d565b9091555050604080518681526020810186905233917fd741e738a23fd18a03a26522320d9fc6cac1fed483e215ea9150fbc2fc43385d910160405180910390a250506001606555505050565b600260655414156105c9576040517f08c379a000000000000000000000000000000000000000000000000000000000815260206004820152601f60248201527f5265656e7472616e637947756172643a207265656e7472616e742063616c6c006044820152606401610287565b600260655581846105db600183611825565b73ffffffffffffffffffffffffffffffffffffffff82166000908152609860205260409020600101541461066b576040517f08c379a000000000000000000000000000000000000000000000000000000000815260206004820152601560248201527f496e76616c69642072656365697665206e6f6e636500000000000000000000006044820152606401610287565b604080516020808201889052818301879052606089811b7fffffffffffffffffffffffffffffffffffffffff0000000000000000000000001690830152825180830360540181526074830184528051908201207f19457468657265756d205369676e6564204d6573736167653a0a333200000000609484015260b08084018290528451808503909101815260d09093019093528151910120600061070f8287610e06565b60995490915073ffffffffffffffffffffffffffffffffffffffff808316911614610796576040517f08c379a000000000000000000000000000000000000000000000000000000000815260206004820152600d60248201527f496e76616c6964206f776e6572000000000000000000000000000000000000006044820152606401610287565b73ffffffffffffffffffffffffffffffffffffffff8916600090815260986020526040812060018082018054929391929091906107d490849061180d565b909155506107e590508a8a8a610eef565b505060016065555050505050505050565b60335473ffffffffffffffffffffffffffffffffffffffff163314610877576040517f08c379a000000000000000000000000000000000000000000000000000000000815260206004820181905260248201527f4f776e61626c653a2063616c6c6572206973206e6f7420746865206f776e65726044820152606401610287565b60335460405160009173ffffffffffffffffffffffffffffffffffffffff16907f8be0079c531659141344cd1fd0a4f28419497f9722a3daafe3b4186f6b6457e0908390a3603380547fffffffffffffffffffffffff0000000000000000000000000000000000000000169055565b60335460009073ffffffffffffffffffffffffffffffffffffffff16331461096a576040517f08c379a000000000000000000000000000000000000000000000000000000000815260206004820181905260248201527f4f776e61626c653a2063616c6c6572206973206e6f7420746865206f776e65726044820152606401610287565b5060995473ffffffffffffffffffffffffffffffffffffffff1690565b600054610100900460ff16806109a0575060005460ff16155b610a2c576040517f08c379a000000000000000000000000000000000000000000000000000000000815260206004820152602e60248201527f496e697469616c697a61626c653a20636f6e747261637420697320616c72656160448201527f647920696e697469616c697a65640000000000000000000000000000000000006064820152608401610287565b600054610100900460ff16158015610a6b57600080547fffffffffffffffffffffffffffffffffffffffffffffffffffffffffffff0000166101011790555b8173ffffffffffffffffffffffffffffffffffffffff81163b610b10576040517f08c379a000000000000000000000000000000000000000000000000000000000815260206004820152603460248201527f5b56616c69646174696f6e5d20546865206164647265737320646f6573206e6f60448201527f7420636f6e7461696e206120636f6e74726163740000000000000000000000006064820152608401610287565b609780547fffffffffffffffffffffffff00000000000000000000000000000000000000001673ffffffffffffffffffffffffffffffffffffffff8516179055610b58611094565b508015610b8857600080547fffffffffffffffffffffffffffffffffffffffffffffffffffffffffffff00ff1690555b5050565b60335473ffffffffffffffffffffffffffffffffffffffff163314610c0d576040517f08c379a000000000000000000000000000000000000000000000000000000000815260206004820181905260248201527f4f776e61626c653a2063616c6c6572206973206e6f7420746865206f776e65726044820152606401610287565b609980547fffffffffffffffffffffffff00000000000000000000000000000000000000001673ffffffffffffffffffffffffffffffffffffffff92909216919091179055565b60335473ffffffffffffffffffffffffffffffffffffffff163314610cd5576040517f08c379a000000000000000000000000000000000000000000000000000000000815260206004820181905260248201527f4f776e61626c653a2063616c6c6572206973206e6f7420746865206f776e65726044820152606401610287565b73ffffffffffffffffffffffffffffffffffffffff8116610d78576040517f08c379a000000000000000000000000000000000000000000000000000000000815260206004820152602660248201527f4f776e61626c653a206e6577206f776e657220697320746865207a65726f206160448201527f64647265737300000000000000000000000000000000000000000000000000006064820152608401610287565b60335460405173ffffffffffffffffffffffffffffffffffffffff8084169216907f8be0079c531659141344cd1fd0a4f28419497f9722a3daafe3b4186f6b6457e090600090a3603380547fffffffffffffffffffffffff00000000000000000000000000000000000000001673ffffffffffffffffffffffffffffffffffffffff92909216919091179055565b600080600080845160411415610e305750505060208201516040830151606084015160001a610ed9565b845160401415610e775750505060408201516020830151907f7fffffffffffffffffffffffffffffffffffffffffffffffffffffffffffffff81169060ff1c601b01610ed9565b6040517f08c379a000000000000000000000000000000000000000000000000000000000815260206004820152601f60248201527f45434453413a20696e76616c6964207369676e6174757265206c656e677468006044820152606401610287565b610ee5868285856111ba565b9695505050505050565b60975473ffffffffffffffffffffffffffffffffffffffff166040517fa9059cbb00000000000000000000000000000000000000000000000000000000815273ffffffffffffffffffffffffffffffffffffffff858116600483015260248201859052919091169063a9059cbb90604401602060405180830381600087803b158015610f7a57600080fd5b505af1158015610f8e573d6000803e3d6000fd5b505050506040513d601f19601f82011682018060405250810190610fb291906117cc565b61103e576040517f08c379a000000000000000000000000000000000000000000000000000000000815260206004820152602e60248201527f536f6d657468696e672077656e742077726f6e6720647572696e67207468652060448201527f746f6b656e207472616e736665720000000000000000000000000000000000006064820152608401610287565b604080518381526020810183905273ffffffffffffffffffffffffffffffffffffffff8516917f89882ad382a3742d4db24e4dabc5000c5852aed762904db28442e4e1630a1d07910160405180910390a2505050565b600054610100900460ff16806110ad575060005460ff16155b611139576040517f08c379a000000000000000000000000000000000000000000000000000000000815260206004820152602e60248201527f496e697469616c697a61626c653a20636f6e747261637420697320616c72656160448201527f647920696e697469616c697a65640000000000000000000000000000000000006064820152608401610287565b600054610100900460ff1615801561117857600080547fffffffffffffffffffffffffffffffffffffffffffffffffffffffffffff0000166101011790555b611180611412565b611188611526565b80156111b757600080547fffffffffffffffffffffffffffffffffffffffffffffffffffffffffffff00ff1690555b50565b60007f7fffffffffffffffffffffffffffffff5d576e7357a4501ddfe92f46681b20a082111561126c576040517f08c379a000000000000000000000000000000000000000000000000000000000815260206004820152602260248201527f45434453413a20696e76616c6964207369676e6174757265202773272076616c60448201527f75650000000000000000000000000000000000000000000000000000000000006064820152608401610287565b8360ff16601b148061128157508360ff16601c145b61130d576040517f08c379a000000000000000000000000000000000000000000000000000000000815260206004820152602260248201527f45434453413a20696e76616c6964207369676e6174757265202776272076616c60448201527f75650000000000000000000000000000000000000000000000000000000000006064820152608401610287565b6040805160008082526020820180845288905260ff871692820192909252606081018590526080810184905260019060a0016020604051602081039080840390855afa158015611361573d6000803e3d6000fd5b50506040517fffffffffffffffffffffffffffffffffffffffffffffffffffffffffffffffe0015191505073ffffffffffffffffffffffffffffffffffffffff8116611409576040517f08c379a000000000000000000000000000000000000000000000000000000000815260206004820152601860248201527f45434453413a20696e76616c6964207369676e617475726500000000000000006044820152606401610287565b95945050505050565b600054610100900460ff168061142b575060005460ff16155b6114b7576040517f08c379a000000000000000000000000000000000000000000000000000000000815260206004820152602e60248201527f496e697469616c697a61626c653a20636f6e747261637420697320616c72656160448201527f647920696e697469616c697a65640000000000000000000000000000000000006064820152608401610287565b600054610100900460ff1615801561118857600080547fffffffffffffffffffffffffffffffffffffffffffffffffffffffffffff00001661010117905580156111b757600080547fffffffffffffffffffffffffffffffffffffffffffffffffffffffffffff00ff16905550565b600054610100900460ff168061153f575060005460ff16155b6115cb576040517f08c379a000000000000000000000000000000000000000000000000000000000815260206004820152602e60248201527f496e697469616c697a61626c653a20636f6e747261637420697320616c72656160448201527f647920696e697469616c697a65640000000000000000000000000000000000006064820152608401610287565b600054610100900460ff1615801561160a57600080547fffffffffffffffffffffffffffffffffffffffffffffffffffffffffffff0000166101011790555b603380547fffffffffffffffffffffffff0000000000000000000000000000000000000000163390811790915560405181906000907f8be0079c531659141344cd1fd0a4f28419497f9722a3daafe3b4186f6b6457e0908290a35080156111b757600080547fffffffffffffffffffffffffffffffffffffffffffffffffffffffffffff00ff16905550565b803573ffffffffffffffffffffffffffffffffffffffff811681146116ba57600080fd5b919050565b6000602082840312156116d0578081fd5b6116d982611696565b9392505050565b600080600080608085870312156116f5578283fd5b6116fe85611696565b93506020850135925060408501359150606085013567ffffffffffffffff80821115611728578283fd5b818701915087601f83011261173b578283fd5b81358181111561174d5761174d61186b565b604051601f82017fffffffffffffffffffffffffffffffffffffffffffffffffffffffffffffffe0908116603f011681019083821181831017156117935761179361186b565b816040528281528a60208487010111156117ab578586fd5b82602086016020830137918201602001949094529598949750929550505050565b6000602082840312156117dd578081fd5b815180151581146116d9578182fd5b600080604083850312156117fe578182fd5b50508035926020909101359150565b600082198211156118205761182061183c565b500190565b6000828210156118375761183761183c565b500390565b7f4e487b7100000000000000000000000000000000000000000000000000000000600052601160045260246000fd5b7f4e487b7100000000000000000000000000000000000000000000000000000000600052604160045260246000fdfea26469706673582212202b1e983b5a95c6bd86404129ad98687db4aae8f934848a932632cb5c72e416c164736f6c63430008040033",
  "linkReferences": {},
  "deployedLinkReferences": {}
}